\:100000000C9462000C948A000C948A000C948A0070
:100010000C948A000C948A000C948A000C948A0038
:100020000C948A000C948A000C948A000C948A0028
:100030000C948A000C948A000C948A000C948A0018
:100040000C946C020C948A000C94DC020C94B602A2
:100050000C948A000C948A000C948A000C948A00F8
:100060000C948A000C948A000000000023002600F3
:10007000290000000008000201000003040700003E
:1000800000000000000000000000250028002B00F8
:1000900000000000240027002A00040404040404D3
:1000A0000404020202020202030303030303010227
:1000B00004081020408001020408102001020408F6
:1000C00010200E0311241FBECFEFD8E0DEBFCDBF3E
:1000D00011E0A0E0B1E0ECE5FAE002C005900D927D
:1000E000A032B107D9F722E0A0E2B1E001C01D9231
:1000F000AC37B207E1F710E0C2E6D0E004C02197C8
:10010000FE010E942605C136D107C9F70E945B0394
:100110000C942C050C940000833081F028F481307D
:1001200099F08230A9F008958730A9F08830C9F09D
:100130008430B1F4809180008F7D03C08091800075
:100140008F7780938000089584B58F7784BD08955C
:1001500084B58F7DFBCF8091B0008F778093B00006
:1001600008958091B0008F7DF9CFCF93DF93282F32
:1001700030E0F901EE58FF4F8491F901E255FF4F4D
:10018000D491F901E656FF4FC491CC23A1F081111F
:100190000E948C00EC2FF0E0EE0FFF1FE859FF4F9C
:1001A000A591B491EC91ED2381E090E009F480E019
:1001B000DF91CF91089580E090E0FACFAF92BF92A7
:1001C000CF92DF92EF92FF920F931F93CF93DF9323
:1001D0006C017B018B01040F151FEB015E01AE1852
:1001E000BF08C017D10759F06991D601ED91FC9174
:1001F0000190F081E02DC6010995892B79F7C501A1
:10020000DF91CF911F910F91FF90EF90DF90CF90F2
:10021000BF90AF900895FC01538D448D252F30E0A1
:10022000842F90E0821B930B541710F0CF96089503
:1002300001970895FC01918D828D981761F0A28D30
:10024000AE0FBF2FB11D5D968C91928D9F5F9F73F6
:10025000928F90E008958FEF9FEF0895FC01918DAC
:10026000828D981731F0828DE80FF11D858D90E019
:1002700008958FEF9FEF0895FC01918D228D892FB6
:1002800090E0805C9F4F821B91098F73992708959E
:1002900089E291E00E943C0121E0892B09F420E0F1
:1002A000822F089580E090E0892B29F00E94480178
:1002B00081110C9400000895FC01A48DA80FB92FA2
:1002C000B11DA35ABF4F2C91848D90E001968F737E
:1002D0009927848FA689B7892C93A089B1898C919D
:1002E000837080648C93938D848D981306C00288EC
:1002F000F389E02D80818F7D80830895EF92FF92B6
:100300000F931F93CF93DF93EC0181E0888F9B8D38
:100310008C8D98131AC0E889F989808185FF15C0F2
:100320009FB7F894EE89FF896083E889F989808115
:100330008370806480839FBF81E090E0DF91CF91E4
:100340001F910F91FF90EF900895F62E0B8D10E006
:100350000F5F1F4F0F731127E02E8C8D8E110CC075
:100360000FB607FCFACFE889F989808185FFF5CFC0
:10037000CE010E945C01F1CFEB8DEC0FFD2FF11D42
:10038000E35AFF4FF0829FB7F8940B8FEA89FB89FD
:1003900080818062CFCFCF93DF93EC01888D88235B
:1003A000B9F0AA89BB89E889F9898C9185FD03C0D8
:1003B000808186FD0DC00FB607FCF7CF8C9185FFBD
:1003C000F2CF808185FFEDCFCE010E945C01E9CFA5
:1003D000DF91CF910895AF92BF92DF92EF92FF929B
:1003E0000F931F93CF93DF938C01D62E10923D0273
:1003F00010923C02CAECD1E030E020E081E0CD3E3A
:10040000D80709F45FC0499180913C0290913D0268
:10041000BC016F5F7F4F8A539E4F70933D02609384
:100420003C028D589F4FFC014C3209F049C01082AC
:100430007901FFEFEF1AFF0A220F331F5801A20EB6
:10044000B31E89E392E00E940005F5019183808349
:1004500089E392E00E9400059927FC01E255FF4FD5
:10046000249186569F4FFC0184918823D1F090E01F
:10047000880F991FFC01E057FF4FA591B491FC0133
:10048000EA57FF4F45915491D11013C09FB7F8948C
:100490008C91209582238C93FA01808128232083DC
:1004A0009FBF10923D0210923C02109239029701B8
:1004B000A5CF8FB7F894EC912E2B2C938FBFF1CF53
:1004C00040839CCFDF91CF911F910F91FF90EF90D0
:1004D000DF90BF90AF9008951F920F920FB60F92CA
:1004E00011242F933F938F939F93AF93BF9380914A
:1004F000250190912601A0912701B091280130910A
:10050000240123E0230F2D3758F50196A11DB11DBD
:10051000209324018093250190932601A093270125
:10052000B09328018091200190912101A091220196
:10053000B09123010196A11DB11D809320019093DC
:100540002101A0932201B0932301BF91AF919F910C
:100550008F913F912F910F900FBE0F901F90189584
:1005600026E8230F0296A11DB11DD2CF1F920F9234
:100570000FB60F9211242F933F934F935F936F9376
:100580007F938F939F93AF93BF93EF93FF9389E2F2
:1005900091E00E945C01FF91EF91BF91AF919F911B
:1005A0008F917F916F915F914F913F912F910F901C
:1005B0000FBE0F901F9018951F920F920FB60F92BB
:1005C00011242F938F939F93EF93FF93E091390121
:1005D000F0913A018081E0913F01F091400182FD6C
:1005E0001BC09081809142018F5F8F7320914301E6
:1005F000821741F0E0914201F0E0E75DFE4F958FF8
:1006000080934201FF91EF919F918F912F910F90D5
:100610000FBE0F901F9018958081F4CFE9E2F1E0B2
:100620001382128288EE93E0A0E0B0E08483958389
:10063000A683B7838EE091E09183808385EC90E080
:100640009587848784EC90E09787868780EC90E09C
:10065000918B808B81EC90E0938B828B82EC90E08D
:10066000958B848B86EC90E0978B868B118E128E07
:10067000138E148E86E0E0E0F1E0A0E7B2E0019096
:100680000D928A95E1F784E0E6E7F2E0DF011D9242
:100690008A95E9F71092C8011092C70110923802AA
:1006A0001092370210923D0210923C0210927B028F
:1006B00010927A020895CF93DF9300D0CDB7DEB7C2
:1006C000789484B5826084BD84B5816084BD85B52D
:1006D000826085BD85B5816085BD80916E00816039
:1006E00080936E00109281008091810082608093DF
:1006F00081008091810081608093810080918000E1
:100700008160809380008091B10084608093B1000B
:100710008091B00081608093B00080917A00846005
:1007200080937A0080917A00826080937A00809131
:100730007A00816080937A0080917A00806880934B
:100740007A001092C100E0913901F0913A0182E003
:100750008083E0913501F09136011082E0913701FC
:10076000F091380180E1808310924101E0913D01D8
:10077000F0913E0186E08083E0913B01F0913C01E5
:10078000808180618083E0913B01F0913C01808118
:1007900088608083E0913B01F0913C01808180681A
:1007A0008083E0913B01F0913C0180818F7D8083CB
:1007B00028E8A22E22E0B22E30E7832E32E0932EDC
:1007C00040E0C42E40E0D42E6624639489E291E098
:1007D0000E943C01181619060CF047C089E291E00E
:1007E0000E941A018093C601893241F1B4F4883223
:1007F00011F19091ED01992321F12091C7013091E0
:10080000C801A9014F5F5F4F5093C8014093C701D2
:100810002A533E4FF9018383D9CF8C3329F08E338D
:1008200041F71092ED01D2CF6092ED011092C80114
:100830001092C701CBCF60921202F8CF1092120231
:10084000C5CF90911202992309F22091C7013091EE
:10085000C801A9014F5F5F4F5093C8014093C70182
:100860002A533E4FF90180A7B1CF8091C901882357
:1008700009F47AC09091ED01911176C08C3609F49B
:1008800062C05CF5843609F465C08636B9F1109211
:10089000C90180917A0290917B02029791F4809134
:1008A0003E020E94B500892BD1F781E020913E02E3
:1008B00030913F02232B09F080E00E94B500892B84
:1008C000A1F7C114D10409F481CF0E944801882303
:1008D00009F47CCF0E94000079CF833709F43FC030
:1008E000843711F18D3699F68091CA01082E000CDB
:1008F000990B90937B0280937A02C9CFF401019007
:100900000020E9F7AF014157524060E772E089E209
:1009100091E00E94DE0042E050E06CE171E089E28B
:1009200091E00E94DE00B3CF8091CA01898380915B
:10093000CB018A83CE0101960E94000590933F026D
:1009400080933E02A4CF61E070E080E492E00E94D8
:10095000EB019DCF70E060E084E592E0F8CF61E0CC
:1009600070E088E692E0F3CF8091EE01882309F4ED
:1009700090CF9091120291118CCF8C3609F03DC02E
:100980009FEEE92E91E0F92E02E412E0A016B106E6
:1009900009F433C0F70181917F01082E000C990BF7
:1009A0000E940005582EF801219131918F013327C3
:1009B000F901EE58FF4F8491F901E255FF4F749011
:1009C000F901E656FF4F4490442001F381110E9443
:1009D0008C00E42DF0E0EE0FFF1FEA57FF4FA591CA
:1009E000B4918FB7F894EC91511005C070947E22A9
:1009F0007C928FBFCBCF7E2AFBCF1092EE0149CFE6
:100A0000FC0188279927E89421912032E9F32930C5
:100A100010F02E30C8F32B3241F02D3239F46894A7
:100A200004C00E941E05820F911D219120532A307F
:100A3000C0F31EF4909581959F4F08957AE0979F9B
:100A4000902D879F802D910D11240895EE0FFF1F8B
:0C0A50000590F491E02D0994F894FFCF7C
:100A5C00302E302E310000000000000000007E011E
:100A6C00DE000B01CB013C011A012E010D0A000026
:00000001FF
